:100000000C945D000C9485000C9485000C94850084
:100010000C9485000C9485000C9485000C9485004C
:100020000C9485000C9485000C9485000C9485003C
:100030000C9485000C9485000C9485000C9485002C
:100040000C9479020C9485000C94E9020C94C30280
:100050000C9485000C9485000C9485000C9485000C
:100060000C9485000C9485000000000024002700FB
:100070002A0000000000250028002B0004040404CE
:100080000404040402020202020203030303030342
:10009000010204081020408001020408102001021F
:1000A00004081020000000080002010000030407FB
:1000B00000000000000000004D0411241FBECFEF1F
:1000C000D8E0DEBFCDBF11E0A0E0B1E0E2EDF9E0A5
:1000D00002C005900D92A431B107D9F721E0A4E147
:1000E000B1E001C01D92AA3BB207E1F710E0CDE5F7
:1000F000D0E004C02197FE010E94E104CC35D10775
:10010000C9F70E941B030C94E7040C94000090E0D4
:10011000FC01EC55FF4F2491FC01E057FF4F349157
:10012000FC01E458FF4FE491EE23C9F0222339F09B
:10013000233001F1A8F4213019F1223029F1F0E047
:10014000EE0FFF1FEE58FF4FA591B4918FB7F894B3
:10015000EC91611126C030953E233C938FBF0895EA
:100160002730A9F02830C9F0243049F78091800069
:100170008F7D03C0809180008F7780938000DFCFD8
:1001800084B58F7784BDDBCF84B58F7DFBCF809125
:10019000B0008F778093B000D2CF8091B0008F7D78
:1001A000F9CF3E2BDACF482F50E0FA01E057FF4F4E
:1001B0009491FA01E458FF4F2491222399F030E002
:1001C000220F331FF901E859FF4FA591B491F901AE
:1001D000EE58FF4F259134912FB7F894EC91E92B0D
:1001E000EC932FBF6115710519F460E00C94870042
:1001F0006F3F710511F461E0F9CFFA01EC55FF4F43
:10020000E491E33019F140F4E130B1F0E230C9F0AB
:100210006038710584F7E9CFE73011F1E83041F13A
:10022000E430B1F780918000806280938000709309
:100230008B0060938A00089584B5806884BD67BD93
:10024000089584B5806284BD68BD08958091800062
:10025000806880938000709389006093880008957F
:100260008091B00080688093B0006093B3000895DF
:100270008091B00080628093B0006093B4000895D4
:10028000AF92BF92CF92DF92EF92FF920F931F93A4
:10029000CF93DF936C017B018B01040F151FEB01E2
:1002A0005E01AE18BF08C017D10759F06991D60199
:1002B000ED91FC910190F081E02DC6010995892B0B
:1002C00079F7C501DF91CF911F910F91FF90EF90CA
:1002D000DF90CF90BF90AF900895FC01538D448D77
:1002E000252F30E0842F90E0821B930B541710F0E1
:1002F000CF96089501970895FC01918D828D9817EE
:1003000061F0A28DAE0FBF2FB11D5D968C91928DC5
:100310009F5F9F73928F90E008958FEF9FEF0895F6
:10032000FC01918D828D981731F0828DE80FF11DBF
:10033000858D90E008958FEF9FEF0895FC01918DDA
:10034000228D892F90E0805C9F4F821B91098F73D3
:100350009927089584E191E00E949E0121E0892B74
:1003600009F420E0822F089580E090E0892B29F0A5
:100370000E94AA0181110C9400000895FC01A48D33
:10038000A80FB92FB11DA35ABF4F2C91848D90E0B7
:1003900001968F739927848FA689B7892C93A0899A
:1003A000B1898C91837080648C93938D848D981324
:1003B00006C00288F389E02D80818F7D80830895B7
:1003C000EF92FF920F931F93CF93DF93EC0181E0A5
:1003D000888F9B8D8C8D98131AC0E889F98980814C
:1003E00085FF15C09FB7F894EE89FF896083E8897F
:1003F000F98980818370806480839FBF81E090E071
:10040000DF91CF911F910F91FF90EF900895F62EFD
:100410000B8D10E00F5F1F4F0F731127E02E8C8D97
:100420008E110CC00FB607FCFACFE889F9898081DC
:1004300085FFF5CFCE010E94BE01F1CFEB8DEC0F11
:10044000FD2FF11DE35AFF4FF0829FB7F8940B8FF9
:10045000EA89FB8980818062CFCFCF93DF93EC0163
:10046000888D8823B9F0AA89BB89E889F9898C919C
:1004700085FD03C0808186FD0DC00FB607FCF7CF58
:100480008C9185FFF2CF808185FFEDCFCE010E9458
:10049000BE01E9CFDF91CF910895FC01608170E04A
:1004A00085E00E94D30085B1837F886085B9089577
:1004B000FC01608170E085E00E94D30085B1837FFC
:1004C000846085B90895FC01608170E086E00E9437
:1004D000D30085B18C7F816085B90895FC0160816E
:1004E00070E086E00E94D30085B18C7F826085B980
:1004F00008951F920F920FB60F9211242F933F93DE
:100500008F939F93AF93BF938091B6019091B70162
:10051000A091B801B091B9013091B50123E0230F4A
:100520002D3758F50196A11DB11D2093B50180937B
:10053000B6019093B701A093B801B093B90180912F
:10054000B1019091B201A091B301B091B4010196B3
:10055000A11DB11D8093B1019093B201A093B3018D
:10056000B093B401BF91AF919F918F913F912F9123
:100570000F900FBE0F901F90189526E8230F02963C
:10058000A11DB11DD2CF1F920F920FB60F92112451
:100590002F933F934F935F936F937F938F939F938B
:1005A000AF93BF93EF93FF9384E191E00E94BE016C
:1005B000FF91EF91BF91AF919F918F917F916F913B
:1005C0005F914F913F912F910F900FBE0F901F9011
:1005D00018951F920F920FB60F9211242F938F939D
:1005E0009F93EF93FF93E0912401F0912501808187
:1005F000E0912A01F0912B0182FD1BC09081809136
:100600002D018F5F8F7320912E01821741F0E091B1
:100610002D01F0E0EC5EFE4F958F80932D01FF9150
:10062000EF919F918F912F910F900FBE0F901F9080
:1006300018958081F4CFCF93DF931F92CDB7DEB7AB
:10064000789484B5826084BD84B5816084BD85B5AD
:10065000826085BD85B5816085BD80916E008160B9
:1006600080936E001092810080918100826080935F
:100670008100809181008160809381008091800061
:100680008160809380008091B10084608093B1008C
:100690008091B00081608093B00080917A00846086
:1006A00080937A0080917A00826080937A008091B2
:1006B0007A00816080937A0080917A0080688093CC
:1006C0007A001092C10084B18F6084B985B1807FB7
:1006D00085B98AB180668AB9E0912401F09125013B
:1006E00082E08083E0912001F09121011082E0916D
:1006F0002201F09123018FEC808310922C01E09174
:100700002801F091290186E08083E0912601F09193
:100710002701808180618083E0912601F09127018B
:10072000808188608083E0912601F091270180819B
:1007300080688083E0912601F091270180818F7D80
:10074000808388E0882E912CA12CB12C95E0F92E85
:1007500000E010E0EE24EA9484E191E00E949E0122
:10076000892BF9F084E191E00E947C01282F81E03F
:1007700091E0263409F445C0223549F481E091E046
:100780000E946E0280E091E00E944D020AC02C346B
:1007900091F481E091E00E94630280E091E00E9488
:1007A000580201151105C1F20E94AA018823A1F285
:1007B0000E940000D1CF223429F481E091E00E9410
:1007C0006302E0CF233521F485B1807F85B9E9CF7D
:1007D000293469F4809100016F2D0E94D50489832A
:1007E00081E091E00E946E02CE010196D8CF2734BD
:1007F00059F4809101016F2D0E94D5048983CE01A7
:1008000001960E946E02C9CF283449F480910101FB
:100810006F2D0E94D5048983CE010196D0CF2A3452
:1008200069F4809100016F2D0E94D504898381E0D5
:1008300091E00E946302CE010196A6CF213729F4F0
:10084000E0920001E0920101ACCF203329F4109234
:10085000000110920101A5CF8FEC820F893008F0C2
:10086000A0CF022E000C330B440B550B2153310942
:1008700041095109AAE9B0E00E949904A501940137
:100880000E947A04DA01C9018C599F4FAF4FBF4FC4
:10089000809300018093010184CFE4E1F1E01382B1
:1008A000128288EE93E0A0E0B0E084839583A68373
:1008B000B78386E091E09183808385EC90E0958713
:1008C000848784EC90E09787868780EC90E0918B1A
:1008D000808B81EC90E0938B828B82EC90E0958B07
:1008E000848B86EC90E0978B868B118E128E138E04
:1008F000148E0895052E97FB1EF400940E94910417
:1009000057FD07D00E94A40407FC03D04EF40C94BA
:10091000910450954095309521953F4F4F4F5F4F33
:10092000089590958095709561957F4F8F4F9F4F5B
:1009300008950E94C604A59F900DB49F900DA49F9A
:10094000800D911D11240895A1E21A2EAA1BBB1B34
:10095000FD010DC0AA1FBB1FEE1FFF1FA217B3078B
:10096000E407F50720F0A21BB30BE40BF50B661FA1
:10097000771F881F991F1A9469F760957095809565
:1009800090959B01AC01BD01CF010895A29FB001DC
:10099000B39FC001A39F700D811D1124911DB29FB3
:1009A000700D811D1124911D0895991B79E004C0DB
:1009B000991F961708F0961B881F7A95C9F780959E
:1009C0000895EE0FFF1F0590F491E02D0994F8941F
:0209D000FFCF57
:1009D200FFFF00000000E00140016D012D029E01B9
:0409E2007C01900103
:00000001FF
